:100000000C942A000C9447000C9447000C94470071
:100010000C9447000C9447000C9447000C94470044
:100020000C9447000C9447000C9447000C94470034
:100030000C9447000C9447000C9447000C94470024
:100040000C9447000C9447000C9447000C94470014
:100050000C94470011241FBECFE5D8E0DEBFCDBF12
:1000600010E0A0E6B0E0E6E3FEE002C005900D92ED
:10007000A03FB107D9F710E0A0EFB0E001C01D929A
:10008000A53FB107E1F70E947B050C9419070C947A
:10009000000040E00E94500008950E94BF010895B2
:1000A000843409F471C0853448F4823499F183347E
:1000B00008F04DC0813409F083C00FC0823651F181
:1000C000833620F4813609F07BC007C0833609F4FB
:1000D0003EC0843609F074C057C0413069F42AB379
:1000E00081E090E0AC0102C0440F551F6A95E2F731
:1000F000BA01622B6ABB08952AB381E090E0AC019B
:1001000002C0440F551F6A95E2F7BA016095622359
:100110006ABB0895413069F427B381E090E0AC01F7
:1001200002C0440F551F6A95E2F7BA01622B67BB04
:10013000089527B381E090E0AC0102C0440F551F41
:100140006A95E2F7BA016095622367BB0895413072
:1001500069F424B381E090E0AC0102C0440F551F64
:100160006A95E2F7BA01622B64BB089524B381E07B
:1001700090E0AC0102C0440F551F6A95E2F7BA0146
:100180006095622364BB0895413069F421B381E036
:1001900090E0AC0102C0440F551F6A95E2F7BA0126
:1001A000622B61BB089521B381E090E0AC0102C0F5
:1001B000440F551F6A95E2F7BA016095622361BB4F
:1001C0000895843409F471C0853448F4823499F177
:1001D000833408F04DC0813409F083C00FC08236EB
:1001E00051F1833620F4813609F07BC007C0833695
:1001F00009F43EC0843609F074C057C0413069F438
:100200002BB381E090E0AC0102C0440F551F6A950A
:10021000E2F7BA01622B6BBB08952BB381E090E04B
:10022000AC0102C0440F551F6A95E2F7BA01609510
:1002300062236BBB0895413069F428B381E090E0FC
:10024000AC0102C0440F551F6A95E2F7BA01622B58
:1002500068BB089528B381E090E0AC0102C0440F70
:10026000551F6A95E2F7BA016095622368BB08954D
:10027000413069F425B381E090E0AC0102C0440F45
:10028000551F6A95E2F7BA01622B65BB089525B345
:1002900081E090E0AC0102C0440F551F6A95E2F77F
:1002A000BA016095622365BB0895413069F422B3B9
:1002B00081E090E0AC0102C0440F551F6A95E2F75F
:1002C000BA01622B62BB089522B381E090E0AC01D9
:1002D00002C0440F551F6A95E2F7BA016095622388
:1002E00062BB0895843409F43DC0853440F48234FF
:1002F000F9F0833450F5813409F040C00CC08236E7
:10030000B9F0833618F48136C9F505C08336E9F0B3
:100310008436A1F527C02BB381E090E0AC0102C088
:10032000440F551F6A95E2F7BA0162276BBB089527
:1003300028B381E090E0AC0102C0440F551F6A95DC
:10034000E2F7BA01622768BB089525B381E090E027
:10035000AC0102C0440F551F6A95E2F7BA0162274B
:1003600065BB089522B381E090E0AC0102C0440F68
:10037000551F6A95E2F7BA01622762BB089584347B
:1003800009F44EC0853440F4823431F18334B0F541
:10039000813409F057C00EC08236F1F0833620F464
:1003A000813609F04FC006C0833641F1843609F02A
:1003B00049C036C029B381E090E0062E02C0880F04
:1003C000991F0A94E2F730E08223932302C09595A7
:1003D00087956A95E2F7089526B381E090E0062EAE
:1003E00002C0880F991F0A94E2F730E0822393231A
:1003F00002C0959587956A95E2F7089523B381E049
:1004000090E0062E02C0880F991F0A94E2F730E0B0
:100410008223932302C0959587956A95E2F7089504
:1004200020B381E090E0062E02C0880F991F0A9445
:10043000E2F730E08223932302C0959587956A9571
:10044000E2F7089508958434D9F0853438F482347D
:1004500099F0833498F48134A1F40CC0823661F0B1
:10046000833618F4813669F405C0833639F0843652
:1004700041F406C06ABB089567BB089564BB089544
:1004800061BB08958434D9F0853438F4823499F00E
:10049000833498F48134A1F40CC0823661F0833641
:1004A00018F4813669F405C0833639F0843641F496
:1004B00006C06BBB089568BB089565BB089562BB19
:1004C00008958434D9F0853438F4823499F0833433
:1004D00098F48134A1F40CC0823661F0833618F4AC
:1004E000813669F405C0833639F0843641F406C09C
:1004F00089B3089586B3089583B3089580B30895AA
:10050000843409F1853438F48234A9F08334B8F4A2
:100510008134E1F40CC0823671F0833618F48136F0
:10052000A9F405C0833659F0843681F40CC08BB32E
:1005300080958BBB089588B3809588BB089585B35B
:10054000809585BB089582B3809582BB08958434DD
:1005500009F471C0853448F4823499F1833408F089
:100560004DC0813409F083C00FC0823651F183360B
:1005700020F4813609F07BC007C0833609F43EC001
:10058000843609F074C057C0413069F42BB381E060
:1005900090E0AC0102C0440F551F6A95E2F7BA0122
:1005A000622B6BBB08952BB381E090E0AC0102C0DD
:1005B000440F551F6A95E2F7BA01609562236BBB41
:1005C0000895413069F428B381E090E0AC0102C0A5
:1005D000440F551F6A95E2F7BA01622B68BB089574
:1005E00028B381E090E0AC0102C0440F551F6A952A
:1005F000E2F7BA016095622368BB0895413069F45F
:1006000025B381E090E0AC0102C0440F551F6A950C
:10061000E2F7BA01622B65BB089525B381E090E053
:10062000AC0102C0440F551F6A95E2F7BA0160950C
:10063000622365BB0895413069F422B381E090E004
:10064000AC0102C0440F551F6A95E2F7BA01622B54
:1006500062BB089522B381E090E0AC0102C0440F78
:10066000551F6A95E2F7BA016095622362BB08954F
:100670000F931F93CF93C82F062F462F417060E032
:100680000E94E10010E0A801427050705595479516
:100690008C2F61E00E94E100A801447050705595D4
:1006A0004795559547958C2F62E00E94E1000870B0
:1006B0001070A801559547955595479555954795BF
:1006C0008C2F63E00E94E100CF911F910F9108955C
:1006D0000F931F93CF93DF93C82FD62F062F10E0D1
:1006E000A80140715070559547955595479555957A
:1006F00047955595479564E00E94E100A801407236
:1007000050705595479555954795559547955595ED
:100710004795559547958C2F65E00E94E100007440
:100720001070A801042E452F000C441F550B000C1F
:10073000441F551F8C2F66E00E94E1004D2F441F7F
:100740004427441F8C2F67E00E94E100DF91CF9186
:100750001F910F9108958EBB9FBB6DBBE29AE19AEA
:10076000E199FECF08958EBB9FBBE09A8DB30895AB
:10077000DC018CB34115510589F0E62FF72F20E0FD
:1007800030E0C9018A0F9B1F9FBB8EBBE09A8DB3DF
:1007900081932F5F3F4F2417350799F708952CB3A6
:1007A0009FBB8EBBE09A8DB3861719F06DBBE29AA2
:1007B000E19A0895DC0141155105B9F0E62FF72FB4
:1007C00020E030E08CB3C9018A0F9B1F9FBB8EBB1A
:1007D000E09A9DB38191981719F08DBBE29AE19A46
:1007E0002F5F3F4F2417350769F7089584E460E0D1
:1007F00041E00E94500084E461E041E00E9450002A
:1008000084E462E041E00E94500084E463E041E05F
:100810000E94500084E464E040E00E94500084E4C0
:1008200065E040E00E94500084E466E040E00E9401
:10083000500084E467E040E00E94500084E464E0FB
:1008400041E00E94A70284E465E041E00E94A70223
:1008500084E466E041E00E94A70284E467E041E0AE
:100860000E94A70208950F931F93CF93DF93CDB7F4
:10087000DEB760970FB6F894DEBF0FBECDBFDE01C6
:100880001196E0E6F0E080E101900D928150E1F7F1
:1008900000E084E460E041E00E94E10084E461E083
:1008A00041E00E94E10084E462E041E00E94E10056
:1008B00084E463E041E00E94E10084E4602F40E0D2
:1008C0000E94E10010E0612F6C5F84E40E94BF0190
:1008D000882361F4E02FF0E0EE0FFF1FEE0FFF1F03
:1008E000E10FF11DEC0FFD1F818104C01F5F14306B
:1008F00051F70BC060960FB6F894DEBF0FBECDBFA8
:10090000DF91CF911F910F9108950F5F043009F689
:100910008FEFF0CF82E460E041E00E94E1008FE9D8
:100920009FE00197F1F700C0000082E460E040E042
:100930000E94E1008FE99FE00197F1F700C00000FD
:100940000895682F81E40E94420282E462E041E05F
:100950000E94E1000E948A040895682F81E40E94A9
:10096000420282E462E040E00E94E1000E948A04C8
:100970008FEC97E00197F1F700C0000008958FEF2A
:1009800091EEA4E081509040A040E1F700C000004B
:1009900081E460E041E00E94500081E461E041E0D8
:1009A0000E94500081E462E041E00E94500081E436
:1009B00063E041E00E94500081E464E041E00E9475
:1009C000500081E465E041E00E94500081E466E06F
:1009D00041E00E94500081E467E041E00E94500045
:1009E00082E460E041E00E94500082E462E041E085
:1009F0000E94500082E461E041E00E94500082E4E5
:100A000061E040E00E94E10082E00E94AD04AFE1BD
:100A1000BEE41197F1F700C0000088E30E94AD0426
:100A20008FEC97E00197F1F700C000008EE00E9484
:100A3000AD04AFECB7E01197F1F700C0000081E022
:100A40000E94AD048FEC97E00197F1F700C0000021
:100A500086E00E94AD04AFECB7E01197F1F700C05B
:100A60000000089581E00E94AD048FE19EE40197AB
:100A7000F1F700C000000895CF93DF93EC01888167
:100A8000882331F021960E94A10489918823D9F707
:100A9000DF91CF910895282F2150223070F46131D9
:100AA00070F4662371F0813019F4962F91580AC0C2
:100AB000823041F4962F915405C090E803C090E82D
:100AC00001C090E8892F0E94AD048FEC97E0019758
:100AD000F1F700C00000089541E00E945000089521
:100AE00041E00E94E100089540E00E94E100089585
:100AF0000E94720108952F923F924F925F926F92DF
:100B00007F928F929F92AF92BF92CF92DF92FF928D
:100B10000F931F93CF93DF938CE00E94AD040E944C
:100B2000F6030E94BF0481E065E00E944B0580E768
:100B300090E00E943C0582E061E00E944B0588E75E
:100B400090E00E943C058FEF95EAAEE08150904026
:100B5000A040E1F700C000000E94320583E690E06B
:100B600061E070E00E946C0583E664E041E00E9471
:100B7000500080E290E00E94B3038F3F910509F09E
:100B800041C088E890E00E943C0582E067E00E9456
:100B90004B05C1E0D0E00E943304082F8F3FD9F30A
:100BA000FC2E96E0F90E82E06F2D0E944B05802FFF
:100BB0000E94A1048FEF90E7A2E081509040A040F6
:100BC000E1F700C0000082E06F2D0E944B058AE231
:100BD0000E94A1048FE798E3A1E081509040A040DB
:100BE000E1F700C00000CE01602F70E00E94AB036F
:100BF0002196C530D10579F680E290E060E070E0A2
:100C00000E94AB030F2EF3E0FF2EF02D0F2EF4EF1A
:100C1000CF2EF0E0DF2EF02DDFEF56010894A10873
:100C2000B1080F2EFEEF8F2EFFEF9F2EF02D8C0CB4
:100C30009D1C0F2EFDEF6F2EFFEF7F2EF02D6C0C05
:100C40007D1C0F2EF6E94F2EF0E05F2EF02D0F2EBB
:100C5000F1EF2F2EF0E03F2EF02DD601DC93F501C1
:100C6000D083D401DC93F301D0830E943205C2010A
:100C70000E943C0582E067E00E944B0500E010E026
:100C80000E943304F801EF50FF4F80838F3FC1F380
:100C9000C02FC95F82E06C2F0E944B05F801EF5016
:100CA000FF4F80810E94A1048FEF90E7A2E0815066
:100CB0009040A040E1F700C0000082E06C2F0E944D
:100CC0004B058AE20E94A1048FE798E3A1E08150DE
:100CD0009040A040E1F700C000000F5F1F4F0430BC
:100CE000110571F681E090E00E94B303D1012C91CF
:100CF00030E08217930709F052C082E090E00E9432
:100D0000B303E2EFF0E0208130E08217930709F0AF
:100D100046C083E090E00E94B303A3EFB0E02C91C3
:100D200030E082179307D9F584E090E00E94B30386
:100D3000F601208130E08217930789F50E94320581
:100D400082EA90E00E943C0583E690E061E070E07A
:100D50000E9478058FE798E3A1E081509040A04081
:100D6000E1F700C0000082E063E00E944B0581EBE8
:100D700090E00E943C0580E090E0DF91CF911F91D0
:100D80000F91FF90DF90CF90BF90AF909F908F908A
:100D90007F906F905F904F903F902F900895CF2D50
:100DA000C15031F10E9432058BEB90E00E943C056E
:100DB0008FEF92E5A7E081509040A040E1F700C09E
:100DC000000082E062E00E944B058AEC90E00E9405
:100DD0003C058F2D815D0E94A1048FEF92E5A7E075
:100DE00081509040A040E1F700C00000FC2E35CFBC
:100DF0000E94320585ED90E00E943C0582E063E0B0
:100E00000E944B0583E664E041E00E94E10084EE2D
:100E100090E00E943C058FEF9DE3A9E48150904053
:100E2000A040E1F700C000000F2EF3E0FF2EF02DF0
:060E300014CFF894FFCF7F
:100E36003738392F3435362A3132332D41303D2B70
:100E460057656C636F6D6500456C656374726F6E94
:100E560069632053616665007365742070617373FE
:100E6600776172643A00656E74657220706173739F
:100E76003A0070617373776F726420726967687481
:100E86000073616661206F70656E0077726F6E67C2
:100E96002070617373776F72640074726965732072
:100EA6006C65667400776F726E6720706173737716
:100EB6006F72640077616974203330736563000074
:00000001FF
